:100000000C9434000C943E000C943E000C943E0082
:100010000C943E000C943E000C943E000C943E0068
:100020000C943E000C943E000C943E000C943E0058
:100030000C943E000C943E000C943E000C943E0048
:100040000C943E000C943E000C943E000C943E0038
:100050000C943E000C943E000C943E000C943E0028
:100060000C943E000C943E0011241FBECFEFD8E04C
:10007000DEBFCDBF0E9440000C94B3010C94000081
:100080001F93259A1092C50087E68093C400809143
:10009000C10088618093C10080E090E023E031E0FE
:1000A00048E459E62D98FC0105C0FB013196633FF9
:1000B0007307A0F4BF01FC01DC0108C01170EF5F01
:1000C000FF4FAF4FBF4F0000103079F311E0E73E14
:1000D000F207A807B90790F3112DF0CF2D9AFC0174
:1000E00005C0FB013196633F7307A0F4BF01FC011B
:1000F000DC0108C01170EF5FFF4FAF4FBF4F000032
:10010000103079F311E0E73EF207A807B90790F342
:10011000112DF0CF6091C0006072603009F41FC1F2
:100120004093C600FC0105C0FB013196633F730795
:10013000A0F4BF01FC01DC0108C01170EF5FFF4FAC
:10014000AF4FBF4F0000103079F311E0E73EF207E8
:10015000A807B90790F3112DF0CF6091C00060722D
:10016000603009F4FDC05093C600BC0107C0FB011C
:1001700031966F387307BF0108F0CCC0E091C00022
:10018000FE2FFF230AF4BFC0FC01DC0108C0117080
:10019000EF5FFF4FAF4FBF4F0000103041F011E055
:1001A000E73EF207A807B90790F3112DF0CFFC0145
:1001B000DC0108C01170EF5FFF4FAF4FBF4F000071
:1001C000103041F011E0E73EF207A807B90790F3BD
:1001D000112DF0CFFC01DC0108C01170EF5FFF4F63
:1001E000AF4FBF4F0000103041F011E0E73EF20783
:1001F000A807B90790F3112DF0CFFC01DC0108C06E
:100200001170EF5FFF4FAF4FBF4F0000103041F054
:1002100011E0E73EF207A807B90790F3112DF0CFE0
:10022000FC01DC0108C01170EF5FFF4FAF4FBF4F03
:100230000000103041F011E0E73EF207A807B907CF
:1002400090F3112DF0CFFC01DC0108C01170EF5FBD
:10025000FF4FAF4FBF4F0000103041F011E0E73EBD
:10026000F207A807B90790F3112DF0CFFC01DC01CC
:1002700008C01170EF5FFF4FAF4FBF4F000010304D
:1002800041F011E0E73EF207A807B90790F3112DFE
:10029000F0CFFC01DC0108C01170EF5FFF4FAF4FE2
:1002A000BF4F0000103041F011E0E73EF207A80711
:1002B000B90790F3112DF0CFFC01DC0108C01170DB
:1002C000EF5FFF4FAF4FBF4F0000103041F011E024
:1002D000E73EF207A807B90790F3112DF0CFFC0114
:1002E000DC0109C01170EF5FFF4FAF4FBF4F00003F
:1002F000103009F43CCF11E0E73EF207A807B90738
:1003000088F3112DEFCFE072E03009F42AC060913C
:10031000C60007C06091C0006072603009F422C05E
:1003200068E76093C600FC0106C0FB013196673C9C
:10033000710508F0B7CEBF01FC01DC0108C01170E7
:10034000EF5FFF4FAF4FBF4F0000103071F311E070
:10035000E73EF207A807B90790F3112DF0CFFFCFC2
:0A036000FFCFFFCFFFCFF894FFCFCF
:00000001FF
