:100000000C9434000C9449000C9449000C94490061
:100010000C9449000C9449000C9449000C9449003C
:100020000C9449000C9449000C9449000C9449002C
:100030000C9449000C9449000C9449000C9449001C
:100040000C9449000C9449000C9449000C9449000C
:100050000C9449000C9449000C9449000C944900FC
:100060000C9449000C94490011241FBECFEFD8E036
:10007000DEBFCDBF11E0A0E0B1E0E8E4F1E002C0F6
:1000800005900D92AE30B107D9F70E944B000C9449
:10009000A2000C9400000E944D00EF92FF920F937B
:1000A0001F9380E184B980E090E022E44FE050E0CB
:1000B00036E861E070E0FC017C01E630F10509F012
:1000C00034C0DC018C01F1E0A034B207040715074D
:1000D00008F0F12DF170F03079F015B8AF5FBF4F37
:1000E0000F4F1F4FF0CFFC01E050FF4FDC01AA5F24
:1000F000BE4FAC91A083019687309105A1F7C7014F
:10010000DC018C01F1E0A03AB3070607170708F4F9
:10011000F12DF170F03039F4EFEFE5B9AF5FBF4F7B
:100120000F4F1F4FEFCFFC01C8CFCF0180509F4F23
:100130008C01DF01A050BF4F9C91D8019C93C70157
:080140003196BBCFF894FFCF0C
:0E014800616C6C756D00657465696E74000005
:00000001FF
