:100000000C9434000C943E000C943E000C943E0082
:100010000C943E000C943E000C943E000C943E0068
:100020000C943E000C943E000C943E000C943E0058
:100030000C943E000C943E000C943E000C943E0048
:100040000C943E000C943E000C943E000C943E0038
:100050000C943E000C943E000C943E000C943E0028
:100060000C943E000C943E0011241FBECFEFD8E04C
:10007000DEBFCDBF0E9440000C949B000C9400009A
:100080001F93259A1092C50087E68093C400809143
:10009000C10088618093C10080E090E023E031E0FE
:1000A00048E459E62D98FC0105C0FB013196633FF9
:1000B0007307A0F4BF01FC01DC0108C01170EF5F01
:1000C000FF4FAF4FBF4F0000103079F311E0E73E14
:1000D000F207A807B90790F3112DF0CF2D9AFC0174
:1000E00005C0FB013196633F7307A0F4BF01FC011B
:1000F000DC0108C01170EF5FFF4FAF4FBF4F000032
:10010000103079F311E0E73EF207A807B90790F342
:10011000112DF0CF6091C0006072603051F04093BB
:10012000C6006091C0006072603021F05093C6003C
:0A013000B9CFFFCFFFCFF894FFCF47
:00000001FF
