:100000000C9434000C943E000C943E000C943E0082
:100010000C943E000C943E000C943E000C943E0068
:100020000C943E000C943E000C943E000C943E0058
:100030000C943E000C943E000C943E000C943E0048
:100040000C943E000C943E000C943E000C943E0038
:100050000C943E000C943E000C943E000C943E0028
:100060000C943E000C943E0011241FBECFEFD8E04C
:10007000DEBFCDBF0E9440000C9477000C940000BE
:10008000259A35B13F7D80E090E029E648E150E0D7
:1000900002C035B13F7D35B935B13072BC01FC01CC
:1000A000303049F019C031706F5F7F4FEF4FFF4F15
:1000B00000003030C9F031E06F3F7207E407F50708
:1000C00090F3312DF0CF31706F5F7F4FEF4FFF4FC7
:1000D0000000303009F4DDCF31E06F3F7207E407F4
:1000E000F50788F3312DEFCF35B13062D4CFF894D6
:0200F000FFCF40
:00000001FF
