:100000000C9434000C943E000C943E000C943E0082
:100010000C943E000C943E000C943E000C943E0068
:100020000C943E000C943E000C943E000C943E0058
:100030000C943E000C943E000C943E000C943E0048
:100040000C943E000C943E000C943E000C943E0038
:100050000C943E000C943E000C943E000C943E0028
:100060000C943E000C943E0011241FBECFEFD8E04C
:10007000DEBFCDBF0E9440000C941C010C94000018
:100080000F931F93259A1092C50087E68093C400B2
:100090008091C10088618093C10080E090E023E0FE
:1000A00031E048E46BE02D98DC0105C0DF011196DA
:1000B000E33FF307A0F4FD01DC018C0108C071707F
:1000C000AF5FBF4F0F4F1F4F0000703079F371E0EB
:1000D000A73EB2070807190790F3712DF0CF2D9AAC
:1000E000DC0105C0DF011196E33FF307A0F4FD0139
:1000F000DC018C0108C07170AF5FBF4F0F4F1F4F05
:100100000000703079F371E0A73EB20708071907C5
:1001100090F3712DF0CF5091C0005072503009F41F
:1001200087C04093C600DC0105C0DF011196E336AD
:10013000F105A0F4FD01DC018C0108C07170AF5F16
:10014000BF4F0F4F1F4F0000703079F371E0A73E93
:10015000B2070807190790F3712DF0CF5091C00036
:100160005072503009F465C059E65093C600DC0166
:1001700005C0DF011196E73BF607A0F4FD01DC01A5
:100180008C0108C07170AF5FBF4F0F4F1F4F000051
:10019000703079F371E0A73EB2070807190790F3B2
:1001A000712DF0CF5091C00055230AF043C07091DB
:1001B000C600DC0105C0DF011196E73CF105A0F4A3
:1001C000FD01DC018C0108C05170AF5FBF4F0F4FC4
:1001D0001F4F0000503079F351E0A73EB2070807E7
:1001E000190790F3512DF0CF5091C000507250304C
:1001F00009F421C07093C600DC0106C0DF0111962E
:10020000E73CF10508F04FCFFD01DC018C0108C08F
:100210005170AF5FBF4F0F4F1F4F0000503071F351
:1002200051E0A73EB2070807190790F3512DF0CF10
:0C023000FFCFFFCFFFCFFFCFF894FFCF30
:00000001FF
